:020000040800F2
:1000000000000220A1D80008E14E0108E94E0108D5
:100010000D4F0108154F01081D4F01080000000099
:10002000000000000000000000000000114801086E
:100030000DD900080000000025480108614B0108A7
:100040000DD900080DD900080DD900080DD90008F8
:100050000DD900080DD90008F1E8000815E90008DD
:1000600039E900085DE9000881E900080DD90008B8
:100070000D0C01080DD90008350B01080DD9000839
:10008000C50B0108ED0A01080DD900080DD90008BB
:100090000DD900080DD900080DD90008A5E9000800
:1000A0000DD900080DD90008114D01080DD900081F
:1000B0000DD900080DD900080DD900080DD9000888
:1000C0000DD900080DD900080DD900080DD9000878
:1000D0000DD90008150A01082D0A0108450A010872
:1000E00001EA00080DD900080DD900080DD9000853
:1000F0000DD900080DD900080DD900080DD9000848
:100100000DD900080DD900081D4901080DD90008B6
:100110005D0A0108750A01080DD900080DD900080B
:100120000DD900080DD900080DD900080DD9000817
:100130000DD900080DD900080DD900080DD9000807
:100140000DD900080DD900080DD900080DD90008F7
:100150007D0B01080DD90008A50A01088D0A0108C8
:100160000DD900080DD900080DD900080DD90008D7
:100170000DD900080DD900085D5F00080DD90008F1
:0C0180000DD900080DD90008000000088F
:1001900081F0004102E000BF83F0004330B54FEA38
:1001A00041044FEA430594EA050F08BF90EA020FA5
:1001B0001FBF54EA000C55EA020C7FEA645C7FEA38
:1001C000655C00F0E2804FEA5454D4EB5555B8BF5B
:1001D0006D420CDD2C4480EA020281EA030382EACC
:1001E000000083EA010180EA020281EA0303362D5E
:1001F00088BF30BD11F0004F4FEA01314FF4801C31
:100200004CEA113102D0404261EB410113F0004F42
:100210004FEA03334CEA133302D0524263EB4303F9
:1002200094EA050F00F0A780A4F10104D5F1200E97
:100230000DDB02FA0EFC22FA05F2801841F10001F2
:1002400003FA0EF2801843FA05F359410EE0A5F1C6
:1002500020050EF1200E012A03FA0EFC28BF4CF0F7
:10026000020C43FA05F3C01851EBE37101F00045AD
:1002700007D54FF0000EDCF1000C7EEB00006EEBBA
:100280000101B1F5801F1BD3B1F5001F0CD3490844
:100290005FEA30004FEA3C0C04F101044FEA44529B
:1002A00012F5800F80F09A80BCF1004F08BF5FEA22
:1002B000500C50F1000041EB045141EA050130BD02
:1002C0005FEA4C0C404141EB010111F4801FA4F1A5
:1002D0000104E9D191F0000F04BF01460020B1FAFA
:1002E00081F308BF2033A3F10B03B3F120020CDA32
:1002F0000C3208DD02F1140CC2F10C0201FA0CF010
:1003000021FA02F10CE002F11402D8BFC2F1200C74
:1003100001FA02F120FA0CFCDCBF41EA0C0190402A
:10032000E41AA2BF01EB0451294330BD6FEA040473
:100330001F3C1CDA0C340EDC04F11404C4F120025E
:1003400020FA04F001FA02F340EA030021FA04F370
:1003500045EA030130BDC4F10C04C4F1200220FAC7
:1003600002F001FA04F340EA0300294630BD21FA05
:1003700004F0294630BD94F0000F83F4801306BFCB
:1003800081F480110134013D4EE77FEA645C18BFBF
:100390007FEA655C29D094EA050F08BF90EA020F56
:1003A00005D054EA000C04BF1946104630BD91EA4E
:1003B000030F1EBF0021002030BD5FEA545C05D151
:1003C0004000494128BF41F0004130BD14F5800490
:1003D0003CBF01F5801130BD01F0004545F0FE4104
:1003E00041F470014FF0000030BD7FEA645C1ABF39
:1003F000194610467FEA655C1CBF0B46024650EA70
:10040000013406BF52EA033591EA030F41F400219B
:1004100030BD00BF90F0000F04BF0021704730B521
:100420004FF4806404F132044FF000054FF00001F6
:1004300050E700BF90F0000F04BF0021704730B5B7
:100440004FF4806404F1320410F0004548BF40428C
:100450004FF000013EE700BF42004FEAE2014FEAE1
:1004600031014FEA02701FBF12F07F4393F07F4FBC
:1004700081F06051704792F0000F14BF93F07F4FEE
:10048000704730B54FF4607401F0004521F0004131
:1004900020E700BF50EA010208BF704730B54FF0B7
:1004A00000050AE050EA010208BF704730B511F0BC
:1004B000004502D5404261EB41014FF4806404F1F4
:1004C00032045FEA915C3FF4DCAE4FF003025FEA76
:1004D000DC0C18BF03325FEADC0C18BF033202EBFE
:1004E000DC02C2F1200300FA03FC20FA02F001FA58
:1004F00003FE40EA0E0021FA02F11444C1E600BFF7
:1005000070B54FF0FF0C4CF4E06C1CEA11541DBFA9
:100510001CEA135594EA0C0F95EA0C0F00F0DEF874
:100520002C4481EA030621EA4C5123EA4C5350EA59
:10053000013518BF52EA033541F4801143F48013AA
:1005400038D0A0FB02CE4FF00005E1FB02E506F03B
:100550000042E0FB03E54FF00006E1FB03569CF090
:10056000000F18BF4EF0010EA4F1FF04B6F5007F96
:1005700064F5407404D25FEA4E0E6D4146EB060608
:1005800042EAC62141EA55514FEAC52040EA5E5091
:100590004FEACE2EB4F1FD0C88BFBCF5E06F1ED83B
:1005A000BEF1004F08BF5FEA500E50F1000041EB72
:1005B000045170BD06F0004646EA010140EA02001F
:1005C00081EA0301B4EB5C04C2BFD4EB0C0541EA41
:1005D000045170BD41F480114FF0000E013C00F356
:1005E000AB8014F1360FDEBF002001F0004170BD7A
:1005F000C4F10004203C35DA0C341BDC04F1140493
:10060000C4F1200500FA05F320FA04F001FA05F21E
:1006100040EA020001F0004221F0004110EBD370EB
:1006200021FA04F642EB06015EEA430E08BF20EA17
:10063000D37070BDC4F10C04C4F1200500FA04F3BA
:1006400020FA05F001FA04F240EA020001F000414C
:1006500010EBD37041F100015EEA430E08BF20EABF
:10066000D37070BDC4F1200500FA05F24EEA020E07
:1006700020FA04F301FA05F243EA020321FA04F036
:1006800001F0004121FA04F220EA020000EBD370ED
:100690005EEA430E08BF20EAD37070BD94F0000FED
:1006A0000FD101F00046400041EB010111F4801F21
:1006B00008BF013CF7D041EA060195F0000F18BFD2
:1006C000704703F00046520043EB030313F4801F0E
:1006D00008BF013DF7D043EA0603704794EA0C0FC8
:1006E0000CEA135518BF95EA0C0F0CD050EA4106DE
:1006F00018BF52EA4306D1D181EA030101F000415B
:100700004FF0000070BD50EA410606BF1046194682
:1007100052EA430619D094EA0C0F02D150EA01368E
:1007200013D195EA0C0F05D152EA03361CBF1046CF
:1007300019460AD181EA030101F0004141F0FE416E
:1007400041F470014FF0000070BD41F0FE4141F4F2
:10075000780170BD70B54FF0FF0C4CF4E06C1CEAF2
:1007600011541DBF1CEA135594EA0C0F95EA0C0FA7
:1007700000F0A7F8A4EB050481EA030E52EA033562
:100780004FEA013100F088804FEA03334FF0805583
:1007900045EA131343EA12634FEA022245EA1115B0
:1007A00045EA10654FEA00260EF000419D4208BF61
:1007B000964244F1FD0404F5407402D25B084FEA0E
:1007C0003202B61A65EB03055B084FEA32024FF4BA
:1007D00080104FF4002CB6EB020E75EB030E22BF17
:1007E000B61A754640EA0C005B084FEA3202B6EBD7
:1007F000020E75EB030E22BFB61A754640EA5C0086
:100800005B084FEA3202B6EB020E75EB030E22BF15
:10081000B61A754640EA9C005B084FEA3202B6EB16
:10082000020E75EB030E22BFB61A754640EADC00D5
:1008300055EA060E18D04FEA051545EA16754FEA37
:1008400006164FEAC30343EA52734FEAC2025FEA55
:100850001C1CC0D111F4801F0BD141EA00014FF0E4
:1008600000004FF0004CB6E711F4801F04BF0143B5
:100870000020B4F1FD0C88BFBCF5E06F3FF6AFAED1
:10088000B5EB030C04BFB6EB020C5FEA500C50F161
:10089000000041EB045170BD0EF0004E4EEA1131E4
:1008A00014EB5C04C2BFD4EB0C0541EA045170BDEB
:1008B00041F480114FF0000E013C90E645EA060E2F
:1008C0008DE60CEA135594EA0C0F08BF95EA0C0F5D
:1008D0003FF43BAF94EA0C0F0AD150EA01347FF4A5
:1008E00034AF95EA0C0F7FF425AF104619462CE77C
:1008F00095EA0C0F06D152EA03353FF4FDAE1046DF
:10090000194622E750EA410618BF52EA43067FF42F
:10091000C5AE50EA41047FF40DAF52EA43057FF4BF
:10092000EBAE12E74FF0FF3C06E000BF4FF0010CCA
:1009300002E000BF4FF0010C4DF804CD4FEA410C2E
:100940007FEA6C5C4FEA430C18BF7FEA6C5C1BD0FB
:1009500001B050EA410C0CBF52EA430C91EA030F7C
:1009600002BF90EA020F0020704710F1000F91EAD9
:10097000030F58BF994208BF90422CBFD8176FEAA7
:10098000E37040F0010070474FEA410C7FEA6C5C75
:1009900002D150EA013C07D14FEA430C7FEA6C5C7C
:1009A000D6D152EA033CD3D05DF8040B704700BFA8
:1009B0008446104662468C461946634600E000BFF6
:1009C00001B5FFF7B7FF002848BF10F1000F01BDC8
:1009D0004DF808EDFFF7F4FF0CBF012000205DF893
:1009E00008FB00BF4DF808EDFFF7EAFF34BF012018
:1009F00000205DF808FB00BF4DF808EDFFF7E0FFB1
:100A000094BF012000205DF808FB00BF4DF808ED01
:100A1000FFF7CEFF94BF012000205DF808FB00BF68
:100A20004DF808EDFFF7C4FF34BF012000205DF84A
:100A300008FB00BF4A0011D212F5001211D20DD5E9
:100A40006FF47873B3EB62520ED44FEAC12343F0D4
:100A5000004343EA505323FA02F070474FF000007E
:100A6000704750EA013002D14FF0FF3070474FF02D
:100A7000000070474FEA4102B2F1E04324BFB3F5F2
:100A8000001CDCF1FE5C0DD901F0004C4FEAC00205
:100A90004CEA5070B2F1004F40EB830008BF20F0E9
:100AA0000100704711F0804F21D113F13872BCBFA3
:100AB00001F00040704741F480114FEA5252C2F1F8
:100AC0001802C2F1200C10FA0CF320FA02F018BF41
:100AD00040F001004FEAC1234FEAD32303FA0CFC94
:100AE00040EA0C0023FA02F34FEA4303CCE77FEA23
:100AF000625307D150EA01331EBF4FF0FE4040F46D
:100B00004000704701F0004040F0FE4040F400001B
:100B1000704700BF80F0004002E000BF81F000415C
:100B200042001FBF5FEA410392EA030F7FEA226C93
:100B30007FEA236C6AD04FEA1262D2EB1363C1BF23
:100B4000D218414048404140B8BF5B42192B88BF92
:100B5000704710F0004F40F4000020F07F4018BFB5
:100B6000404211F0004F41F4000121F07F4118BFD5
:100B7000494292EA030F3FD0A2F1010241FA03FC7D
:100B800010EB0C00C3F1200301FA03F100F0004365
:100B900002D5494260EB4000B0F5000F13D3B0F12D
:100BA000807F06D340084FEA310102F10102FE2A9C
:100BB00051D2B1F1004F40EBC25008BF20F001000C
:100BC00040EA03007047490040EB000010F4000FBA
:100BD000A2F10102EDD1B0FA80FCACF1080CB2EB4D
:100BE0000C0200FA0CF0AABF00EBC25052421843AC
:100BF000BCBFD0401843704792F0000F81F4000151
:100C000006BF80F400000132013BB5E74FEA410323
:100C10007FEA226C18BF7FEA236C21D092EA030F8F
:100C200004D092F0000F08BF0846704790EA010F09
:100C30001CBF0020704712F07F4F04D1400028BF36
:100C400040F00040704712F100723CBF00F5000018
:100C5000704700F0004343F0FE4040F4000070474E
:100C60007FEA226216BF08467FEA236301464202FA
:100C700006BF5FEA412390EA010F40F4800070470D
:100C80004FF0000304E000BF10F0004348BF4042B3
:100C90005FEA000C08BF704743F0964301464FF0EF
:100CA00000001CE050EA010208BF70474FF000034B
:100CB0000AE000BF50EA010208BF704711F000438C
:100CC00002D5404261EB41015FEA010C02BF84465C
:100CD0000146002043F0B64308BFA3F18053A3F5BB
:100CE0000003BCFA8CF2083AA3EBC25310DB01FA02
:100CF00002FC634400FA02FCC2F12002BCF1004F86
:100D000020FA02F243EB020008BF20F00100704716
:100D100002F1200201FA02FCC2F1200250EA4C006A
:100D200021FA02F243EB020008BF20EADC707047B0
:100D300073B96AB9002908BF0028BCBF00204FF072
:100D40000041C4BF6FF000414FF0FF3000F0C6B863
:100D500082B0EC462DE9005000F090F8DDF804E098
:100D600002B00CBC704700BF4BB942B9002908BFA4
:100D7000002802D04FF0FF31084600F0AFB882B033
:100D8000EC462DE9005000F091F8DDF804E002B0E7
:100D90000CBC704707EE900AF5EEC07AF1EE10FA3F
:100DA00008B503D4BDE8084000F022B8F1EE677A38
:100DB00017EE900A00F01CF8404261EB410108BDBB
:100DC00038B50022002304460D46FFF70BFE28B974
:100DD00020462946BDE8384000F02EB8204605F1EF
:100DE000004100F029F8404261EB410138BD00BFED
:100DF00070B5FFF731FB00220D4B04460D46FFF79F
:100E00007FFBFFF717FE0646FFF704FB0022094BA6
:100E1000FFF776FB02460B4620462946FFF7BCF952
:100E2000FFF708FE002242EA00042046314670BD6A
:100E30000000F03D0000F04170B500220D4B04466B
:100E40000D46FFF75DFBFFF7F5FD0646FFF7E2FAFB
:100E50000022094BFFF754FB02460B462046294669
:100E6000FFF79AF9FFF7E6FD002242EA0004204668
:100E7000314670BD0000F03D0000F0412DE97043A7
:100E8000069E14461D468046894600F029F804FB5C
:100E900001F300FB0533A4FB00451D44B8EB04043B
:100EA00069EB0505C6E90045BDE870832DE970438F
:100EB000069E1446804689461D4600F05DF900FBFB
:100EC00005F504FB0153A0FB04451D44B8EB0404E5
:100ED00069EB0505C6E90045BDE87083704700BFB2
:100EE00000292DE9F00FC0F29F800024002BC0F2F2
:100EF0009680154606460F46002B3ED18A4257D9AA
:100F0000B2FA82F34BB1C3F1200201FA03F720FADF
:100F100002F29D40174300FA03F6290CB7FBF1F2E9
:100F2000330C01FB127CA8B243EA0C4700FB02F32E
:100F3000BB4209D97F1902F1FF3C80F00181BB421D
:100F400040F2FE80023A2F44FF1AB7FBF1F3B6B22B
:100F500001FB137146EA014100FB03F0884208D906
:100F6000491903F1FF3780F0ED80884240F2EA80B2
:100F7000023B43EA0242002303E08B420AD90023EA
:100F80001A461046194614B1404261EB4101BDE8D2
:100F9000F00F7047B3FA83F8B8F1000F40F0848087
:100FA0008B4202D3824200F2DE8000230122E8E776
:100FB00012B90123B3FBF2F5B5FA85F2002A39D153
:100FC0007F1B280C1FFA85FC0123B7FBF0F1320CC4
:100FD00000FB117742EA07470CFB01F2BA4207D93E
:100FE0007F1901F1FF3802D2BA4200F2C1804146B6
:100FF000BF1AB7FBF0F2B6B200FB127046EA00402F
:101000000CFB02FC844507D9401902F1FF3702D2DC
:10101000844500F2AB803A4642EA0142B1E7E4433C
:10102000524263EB430364E7404261EB41014FF0FE
:10103000FF345BE79540C2F1200327FA03F1280C47
:1010400026FA03F39740B1FBF0F81F433B0C00FB7B
:1010500018111FFA85FC43EA01410CFB08F38B428F
:1010600006FA02F608D9491908F1FF3279D28B4203
:1010700077D9A8F102082944C91AB1FBF0F3BFB22D
:1010800000FB131147EA01470CFB03F2BA4207D9F0
:101090007F1903F1FF3160D2BA425ED9023B2F447F
:1010A000BF1A43EA084390E7C8F1200203FA08FC9C
:1010B00025FA02F343EA0C0C4FEA1C4921FA02F329
:1010C00001FA08F720FA02F2B3FBF9F1174309FB22
:1010D00011333A0C1FFA8CFB42EA03430BFB01FA73
:1010E0009A4505FA08F008D913EB0C0301F1FF3219
:1010F00035D29A4533D902396344CAEB0303B3FBB3
:10110000F9F209FB1233BFB247EA03470BFB02F9BE
:10111000B94508D917EB0C0702F1FF331BD2B945CB
:1011200019D9023A674442EA0145A5FB0001C9EB1F
:1011300007078F424FF000030AD305D02A4620E765
:10114000624601E73B4614E706FA08F68642F5D206
:101150006A1E002315E71A46E5E70B46A0E711468D
:10116000CBE7904688E7434642460AE7023A53E710
:1011700002392F443CE700BF2DE9F00F1446054625
:101180000E46002B43D18A4253D9B2FA82F757B1A7
:10119000C7F1200620FA06F601FA07F302FA07F46F
:1011A0001E4300FA07F5210CB6FBF1F22B0C01FBF4
:1011B0001267A0B243EA074600FB02F3B34209D923
:1011C000361902F1FF3780F0F680B34240F2F38027
:1011D000023A2644F61AB6FBF1F3ADB201FB1361F5
:1011E00045EA014100FB03F0884208D9091903F1DF
:1011F000FF3680F0E280884240F2DF80023B43EA23
:101200000242002310461946BDE8F00F70478B429A
:101210004AD8B3FA83F6002E4DD18B4202D38242D4
:1012200000F2D6800023012210461946BDE8F00FD7
:10123000704712B90124B4FBF2F4B4FA84F2002A24
:101240007CD1091B260CA7B20123B1FBF6F02A0CB6
:1012500006FB101142EA014107FB00F28A4207D95E
:10126000091900F1FF3C02D28A4200F2C3806046B5
:10127000891AB1FBF6F2ADB206FB121145EA01453F
:1012800007FB02F7AF4208D92C1902F1FF3180F0B9
:101290009680A74240F29380023A42EA004210460A
:1012A0001946BDE8F00F704700231A46104619464C
:1012B000BDE8F00F7047C6F1200522FA05F4B340EF
:1012C0001C434FEA144821FA05F301FA06F720FA05
:1012D00005F5B3FBF8FC2F4308FB1C333D0C1FFA4C
:1012E00084FA45EA03430AFB0CF9994502FA06FB26
:1012F00004D91B190CF1FF326DD39446C9EB0303DB
:10130000B3FBF8F508FB1533BFB247EA03470AFB06
:1013100005F8B84504D93F1905F1FF3361D31D46DF
:1013200045EA0C4CACFB0B23C8EB07079F424FF080
:10133000000549D345D062462B4663E79440C2F18D
:10134000200321FA03FC260C20FA03F301FA02F52C
:10135000BCFBF6F843EA05010B0C06FB18CCA7B260
:1013600043EA0C4C07FB08F3634500FA02F509D980
:101370001CEB040C08F1FF323AD2634538D9A8F1CE
:101380000208A444C3EB0C0CBCFBF6F389B206FBC9
:1013900013CC41EA0C4107FB03F28A4207D9091931
:1013A00003F1FF3022D28A4220D9023B2144891A1C
:1013B00043EA084349E73A460CE733461FE70A4643
:1013C0006BE7B0409042B6D20CF1FF32002319E730
:1013D0003346324616E799458FD9ACF1020C2344C7
:1013E0008CE7B8459BD9023D274499E70346DEE7E1
:1013F0009046C7E7023821443AE700BF80B582B083
:1014000000AF78607B68183318460BF0BFF90346CD
:101410009BB218460837BD4680BD00BF80B582B07C
:1014200000AF78607868FFF7E9FF03461A33184683
:101430000837BD4680BD00BF80B483B000AF786080
:1014400039607B680D4A1A603B68002B05DA0C4B4B
:101450001B68591C0A4A116000E03B687A685360B7
:101460007B6800221A737B6800229A607B681846AA
:101470000C37BD465DF8047B704700BFF88D01084E
:101480006C00002080B582B000AF78607B68064AAF
:101490001A600023002B02D078680BF033FA7B68C7
:1014A00018460837BD4680BDF88D010880B582B06A
:1014B00000AF78607868FFF7E5FF78680BF022FAF4
:1014C0007B6818460837BD4680BD00BF80B483B036
:1014D00000AF78600C37BD465DF8047B704700BFF5
:1014E00080B485B000AFF860B9607A600023184618
:1014F0001437BD465DF8047B704700BF80B483B0ED
:1015000000AF7860012318460C37BD465DF8047BB8
:10151000704700BF80B483B000AF786039600123AA
:1015200018460C37BD465DF8047B704780B483B025
:1015300000AF78600C37BD465DF8047B704700BF94
:1015400080B483B000AF78600C37BD465DF8047B93
:10155000704700BF80B483B000AF78600C37BD46E1
:101560005DF8047B704700BF80B483B000AF786043
:101570007B68044A1A607B6818460C37BD465DF8E4
:10158000047B7047E08D010880B582B000AF7860C1
:1015900039607B6818464FF0FF31FFF74DFF7B68DD
:1015A00010331846FFF7E0FF7B68064A1A607B6835
:1015B000054A1A617B683A685A617B6818460837A1
:1015C000BD4680BDA08D0108C88D010880B582B0E0
:1015D00000AF78607B685B691A467B681033104601
:1015E00019460AF081FD0837BD4680BD80B582B03E
:1015F00000AF78607B689B68002B04D07B689B6899
:10160000184614F017F90837BD4680BDA0F1100048
:10161000FFF7ECBF80B582B000AF78607B689B6855
:10162000002B04D07B689B68184614F003F9083738
:10163000BD4680BDA0F11000FFF7ECBF80B582B0C1
:1016400000AF786039603868FFF7E8FE03469AB269
:101650000A4B1A80094B1B881BB2094839681A4685
:101660000BF026F97B685B691846044900F0FAFB29
:10167000012318460837BD4680BD00BF0005002085
:101680000205002080B584B000AFF860B9607A60D0
:10169000FB689B69002B3FDDFB689A693F4B134455
:1016A0009A1C3E4B1B8819B2FB689B69CB1AB86821
:1016B00011461A460BF0FCF8B868FFF7AFFE024679
:1016C000364B1B8819B2FB689B69CB1A9A422CBF18
:1016D00000230123DBB2002B11D0B868FFF79EFE78
:1016E00003461A467B681A60B868FFF797FE034600
:1016F000FA68926913441A46FB689A610AE0274B1C
:101700001B881AB2FB689B69D21A7B681A60FB6857
:1017100000229A6101233DE0FB685B6918461F497E
:1017200000F09CFF0346002B0CBF00230123DBB21B
:10173000002B2ED0194B1B881BB2B86818491A46CB
:101740000BF0B6F8B868FFF769FE0246134B1B882A
:101750001BB29A422CBF00230123DBB2002B0ED018
:10176000B868FFF75BFE03461A467B681A60B868E4
:10177000FFF754FE03461A46FB689A6107E0074BE1
:101780001B881AB27B681A60FB6800229A610123E9
:1017900000E0002318461037BD4680BD0406002037
:1017A0000606002080B582B000AF78607B680A4AE8
:1017B0001A607B68094A1A617B681846FFF762FE67
:1017C0000023002B02D078680BF09CF87B68184649
:1017D0000837BD4680BD00BFA08D0108C88D010837
:1017E00080B582B000AF78607868FFF7DBFF78687B
:1017F0000BF088F87B6818460837BD4680BD00BFEF
:1018000080B483B000AF78600C37BD465DF8047BD0
:10181000704700BF80B582B000AF7860786813F081
:1018200029FE012318460837BD4680BD80B582B029
:1018300000AF78607B68064A1A600023002B02D054
:1018400078680BF05FF87B6818460837BD4680BDA6
:10185000888E010880B582B000AF78607868FFF7A5
:10186000E5FF78680BF04EF87B6818460837BD46F0
:1018700080BD00BF80B584B000AFF860B9607A6009
:101880003B6004480AF00EFB002318461037BD46A3
:1018900080BD00BF107801080FB480B400AF0023F2
:1018A0001846BD465DF8047B04B070470FB480B4A1
:1018B00000AF00231846BD465DF8047B04B07047B6
:1018C0000FB480B400AF00231846BD465DF8047B1A
:1018D00004B070470FB480B400AF00231846BD4673
:1018E0005DF8047B04B070470FB480B400AF0023F0
:1018F0001846BD465DF8047B04B070470FB480B451
:1019000000AF00231846BD465DF8047B04B0704765
:1019100080B483B000AF7860002318460C37BD4612
:101920005DF8047B704700BF80B483B000AF78607F
:10193000002318460C37BD465DF8047B704700BF96
:1019400080B584B000AFF860B9607A60FB68184673
:101950000A4940F2EB324FF4FA6313F037FEFB68AA
:10196000074A1A60FB68BA681A65FB687A685A65A4
:10197000FB6818461037BD4680BD00BF9878010847
:10198000588E010890B585B000AF78604FF0FF30F9
:101990006FF00041002213F069FF7B685B6D184611
:1019A0004FF0FF326FF000430AF018FB7B681B6DAD
:1019B00093F8D035002B06D14FF0FF306FF0004187
:1019C000002213F053FF78684449042200F092F893
:1019D0000346DB0FDBB2002B2BD008E07B685B6D8E
:1019E0001B6848331B687A68526D104698477B68BD
:1019F0005B6D1B6818331B687A68526D10469847F8
:101A00000346002BEAD17B681B6D93F8D035082B79
:101A10000ED07B681B6D012283F8D025304B314AF4
:101A20001A60314B1C6804202D4900220023A04776
:101A300053E02A4B1B6803F007031A02274B1B686D
:101A400003F47F431B0A1343786828491A4600F0C1
:101A500051F80346DB0FDBB2002B2BD008E07B688C
:101A60005B6D1B6848331B687A68526D1046984757
:101A70007B685B6D1B6818331B687A68526D104673
:101A800098470346002BEAD17B681B6D93F8D0354D
:101A9000082B0ED07B681B6D012283F8D025104BDC
:101AA000104A1A60104B1C6804200D4900220023C4
:101AB000A04712E00E48FFF7ADFE0346FB7309E0B6
:101AC0007B681B6D184600F041FA0023FB73084841
:101AD00013F02EFDFB7B002BF2D15EE734070020D4
:101AE0001C070020080001023007002038070020F2
:101AF0000C07002090B587B000AFF860B9607A603D
:101B000000237B6126E0FB685B6D1C460BF016F939
:101B1000154A4FF00003121843EB010320460AF068
:101B20005DFAFB685B6D1B6848331B68FA68526D91
:101B30001046984738613B69002B02DA4FF0FF33BB
:101B40000DE07B69BA6813443A69D2B21A707B69B6
:101B500001337B617A697B689A42D4DB7B681846E3
:101B60001C37BD4690BD00BF8096980080B586B0FA
:101B700000AFB9607B600346FB731346BB81002353
:101B80007B6100237B6118E000BF1F4B1B681B6853
:101B90004C331B681C4A11687A69B8680244127891
:101BA000D2B252B20846114698470346DB0FDBB269
:101BB000002BEAD17B6901337B61FA7B7B699A4216
:101BC000E2DC00237B6118E000BF0F4B1B681B6841
:101BD0004C331B680C4A11687A69786802441278A1
:101BE000D2B252B20846114698470346DB0FDBB229
:101BF000002BEAD17B6901337B61BA897B699A4208
:101C0000E2DC1837BD4680BD0807002080B582B0F1
:101C100000AF786039607B6818460AF09DF97B68F0
:101C2000184A1A607B684FF0FF329A617B684FF068
:101C3000FF32DA617B684C33184600F00BFE7B689C
:101C4000002283F871257B68002283F872257B6867
:101C5000002283F873257B6803F5AF631846796823
:101C60003A68FFF76DFE7B683A689A64064B3A68FB
:101C70001A607B68002283F8D0257B6818460837F5
:101C8000BD4680BD188E0108080700200000000036
:101C900090B587B000AFF860B9607A60FB68BA6849
:101CA0005A62FB687A681A62FB689B6C1B68343363
:101CB0001B68FA68926C10464FF4E1319847FB6854
:101CC0009B6C1B6838331B68FA68926C10460121C4
:101CD00001229847464B474A1A6008E0FB689B6C14
:101CE0001B6848331B68FA68926C10469847FB687B
:101CF0009B6C1B6818331B68FA68926C10469847F7
:101D00000346002BEAD13C48FFF784FD0346FB75F0
:101D100018E0FB6893F8D035002B0AD1FB6801224C
:101D200083F8D025FB6803F5AF63184613F082FDF6
:101D300003E0FB68012283F8D0250023FB752E48C1
:101D400013F0F6FBFB7D002BE3D12C4B2C4A1A60E1
:101D5000274B1C680420294900220023A0470AF0D1
:101D6000EDFF21A3D3E90023121843EB0103104632
:101D70001946002213F07AFD2CE008E0FB689B6C0A
:101D80001B6848331B68FA68926C10469847FB68DA
:101D90009B6C1B6818331B68FA68926C1046984756
:101DA0000346002BEAD1154B154A1A60104B1C68EC
:101DB0000420124900220023A0470AF0BFFF0AA313
:101DC000D3E90023121843EB010310461946002201
:101DD00013F04CFDFB6893F8D035012BCDD00023D8
:101DE00018461C37BD4690BD00A3E111000000005D
:101DF000300700206D1B00080C0700201C07002086
:101E000008000102AFF3008090B585B000AF7860A4
:101E10001048FFF7FFFC0346FB7315E07B680022C8
:101E200083F8D0250C4B00221A710B4B0B4A1A6019
:101E30000B4B1C680520084900220023A047002303
:101E4000FB73044813F074FBFB7B002BE6D11437C3
:101E5000BD4690BD0C0700201C07002008010101B1
:101E60003007002090B583B000AF786039607B68A0
:101E700093F8D035082B09D17B689B69B3F1FF3FFC
:101E800007D17B68DB69B3F1FF3F02D14FF0FF332D
:101E900054E07B689B69B3F1FF3F23D07B689B696B
:101EA000DAB2284B1A713B681B88DAB2254B5A719B
:101EB000244B5B7902331A0A224B5B7902331B02F3
:101EC0009BB2134343F4A02343F008031D4A13605D
:101ED0001D4B1C681B4B5B791A463B68023306207E
:101EE0001849A0477B68DB69B3F1FF3F23D07B68CB
:101EF000DB69DAB2134B1A713B681B88DAB2114BFB
:101F00005A71104B5B7902331A0A0E4B5B7902331C
:101F10001B029BB2134343F4A02343F00803094A76
:101F20001360094B1C68074B5B791A463B68023308
:101F300006200449A0473B681B881BB218460C3793
:101F4000BD4690BD1C0700203007002090B583B02F
:101F500000AF78609E4B1B6823F47F4323F0070398
:101F60009C4A934200F03D839A4A934243D89A4A4E
:101F7000934200F03883B3F1091F1CD2974A934271
:101F800000F0E780954A934208D8954A934200F0C2
:101F90009280944A934200F0B18037E3924A934290
:101FA00000F0B782914A934200F01F83904A934217
:101FB00000F0E7822AE38F4A934200F018838D4AAB
:101FC00093420CD88C4A934200F013838B4A93427D
:101FD00000F076828A4A934200F0528216E3894AE0
:101FE000934200F00C82884A934200F00483874AAF
:101FF000934249D00AE3864A934200F01682844A0B
:10200000934220D8834A934200F0DD81814A934273
:102010000CD8814A934200F0C982804A934200F072
:10202000EC827F4A934200F0EA82EFE27D4A9342DB
:1020300000F0E7827C4A934200F0E5827B4A9342BB
:1020400000F08782E2E27A4A934200F0DE82784A28
:1020500093420CD8774A934200F00081764A93422B
:1020600000F06881754A934200F08282CEE2744AA1
:10207000934200F07881734A934200F04C81724A97
:10208000934200F02A81C1E27B6893F8D035012B9E
:1020900010D17B68022283F8D0256C4B00221A7184
:1020A0006A4B6B4A1A606B4B1C680520674900221B
:1020B0000023A047AAE27B6893F8D035022B0ED10B
:1020C0007B68032283F8D025604B464A1A60614B37
:1020D0001C6804205D4900220023A04796E27B682B
:1020E000032283F8D025594B3E4A1A60594B1C688D
:1020F0000420564900220023A04787E27B6893F81A
:10210000D035032B24D1324B9B88002B11D14F4B60
:1021100000221A714D4B504A1A604E4B1C68052024
:102120004A4900220023A0477B68042283F8D02577
:102130000EE07B68012283F8D025444B334A1A60B5
:10214000444B1C680420414900220023A0475DE263
:102150005CE27B6893F8D035042B38D11C4B9B880C
:10216000002B25D17B68052283F8D0257B681B6A6C
:1021700018460AF05DFB0346DAB2344B1A71334B52
:102180001B7901331A0A314B1B7901331B029BB2B5
:102190001A43284B13432D4A13602E4B1C682B4BBC
:1021A0001B791A467B681B6A05202849A0470EE068
:1021B0007B68012283F8D025244B144A1A60254BF2
:1021C0001C680420214900220023A0471EE21DE2D2
:1021D0003407002088000502080009008800030079
:1021E00088000100080003000800050088000500C1
:1021F0008800040008000901880004018800050126
:10220000080004010800040288000402080001021A
:102210008800040408000403880009020800010380
:102220000800090208000903880009038800050363
:102230008800090508000305880003050800050457
:102240008800030788000308080003071C07002014
:102250000801010130070020080101037B6893F8A1
:10226000D035052B38D18B4B1B79002B25D17B68C2
:10227000062283F8D0257B685B6A18460AF0D8FAF4
:102280000346DAB2844B1A71834B1B7901331A0A65
:10229000814B1B7901331B029BB21A437F4B1343C3
:1022A0007D4A13607E4B1C687B4B1B791A467B680A
:1022B0005B6A05207849A0470EE07B68012283F81D
:1022C000D025754B774A1A60754B1C6804207249FB
:1022D00000220023A04799E198E17B6893F8D0356C
:1022E000062B17D16B4B9B88002B04D17B680722F0
:1022F00083F8D0250EE07B68012283F8D025664B59
:10230000684A1A60664B1C68042063490022002357
:10231000A0477BE17AE17B68012283F8D0255E4B00
:10232000604A1A605E4B1C6804205B49002200234F
:10233000A0476BE17B6893F8D035072B12D1554B42
:102340001B79002B0ED07B68012283F8D025524BDD
:10235000544A1A60524B1C6804204F490022002343
:10236000A04753E152E14B4B5B79002B0ED17B68C8
:10237000012283F8D025484B4A4A1A60484B1C6812
:102380000420454900220023A0471BE07B68082267
:1023900083F8D0257B6893F87135002B02D07868DC
:1023A00000F06CF97B6893F87235002B02D07868E6
:1023B00000F0C4F97B6893F87335002B02D078687D
:1023C00000F0E0F922E1334B9B88002B16D1314B12
:1023D0009B791A467B689A617B68DB6A9AB22E4BBE
:1023E0009A802D4BFF229A712B4B2F4A1A602C4B4F
:1023F0001C680720284900220023A04706E17B68CB
:102400009B69DAB2244B1A717B68DB6A9AB2224B61
:10241000A3F80520204B254A1A60214B1C68072091
:102420001D4900220023A047F0E01A4BB3F80B30FF
:102430009BB29AB21E4B1A801D4B1B881BB21D48C3
:102440001D491A460AF034FA7B684C33184618497D
:1024500000F01AFA034683F00103DBB2002B02D02E
:10246000164809F0D9FC7B685B6B5A1C7B685A6381
:102470007B681B6830331B687A6810469847C5E054
:10248000044B9B88002B04D1024B9B791A467B6836
:10249000DA61BBE0340700201C07002008000307B6
:1024A00030070020080001020803040208030407A3
:1024B000380F00203A0F002041070020AC780108B7
:1024C000544B5B791A46544B1A80534B1B881BB2F2
:1024D000524853491A460AF0EBF97B684C331846C8
:1024E0004D4900F0D1F9034683F00103DBB2002B24
:1024F00002D04C4809F090FC7B685B6C5A1C7B68EE
:102500005A647B681B6830331B687A6810469847AA
:102510007CE0404B9B791A467B689B699A4204D1C8
:102520007B681B6B5A1C7B681A633A4B9B791A4673
:102530007B68DB699A4204D17B681B6C5A1C7B6800
:102540001A647B681B6828331B687A6810469847B2
:102550005CE0304B9A79344B1A71334B334A1A6032
:10256000334B1C680520304900220023A0474DE072
:102570007B6893F87335002B02D0786800F002F97D
:1025800044E0244A7B685268C3F86425214A7B688A
:102590009268C3F86C251F4A7B68D268C3F8682527
:1025A0001C4B1A7C7B6883F870252FE07B6893F8BE
:1025B0007135002B14D07B6893F8D035082B0FD1E0
:1025C0007B68D3F874351B681C687B68D3F8741576
:1025D000104B5A680F4B1B7A08461146154AA04704
:1025E00014E000BF12E000BF10E000BF0EE000BF2B
:1025F0000CE000BF0AE000BF08E000BF06E000BF3B
:1026000004E000BF02E000BF00E000BF0C37BD46A1
:1026100090BD00BF34070020380F00203A0F002083
:102620003A070020AC7801081C07002008010504C7
:10263000300700203D07002080B582B000AF7860F1
:102640007B684C33184600F055F9034683F00103CC
:10265000DBB218460837BD4680BD00BF80B582B0EA
:1026600000AF786039607B684C331846396800F0F9
:1026700057F9034618460837BD4680BD90B583B06C
:1026800000AF7860274B00221A71264B01225A7145
:10269000244B5B7902331A0A224B5B7902331B020B
:1026A0009BB21A43204B13431E4A13601F4B1C68F6
:1026B0001C4B5B7906201B491A461D4BA047194B42
:1026C00001221A71174B04225A71164B5B7902339F
:1026D0001A0A144B5B7902331B029BB21A43124B4A
:1026E0001343104A1360114B1C680E4B5B79062094
:1026F0000C491A460F4BA0470A4B01221A71094B8D
:1027000000225A71074B00229A71064B0A4A1A603E
:10271000064B1C680720034900220023A0470C3702
:10272000BD4690BD1C0700200800090130070020AD
:10273000CC780108D07801080803090090B583B06F
:1027400000AF78607B689A6A0B4B5A607B68DB6AE3
:102750009AB2094B1A81084B00229A72064B074A1B
:102760001A60074B1C680B20034900220023A04776
:102770000C37BD4690BD00BF1C07002008070403AE
:102780003007002090B583B000AF78607B689B6B0A
:10279000002B04D17B68D3F868257B689A637B683B
:1027A0009A6B0B4B5A607B68DB6B9AB2084B1A81B1
:1027B000074BFF229A72064B064A1A60064B1C68AA
:1027C0000B20034900220023A0470C37BD4690BDD3
:1027D0001C070020080704013007002080B586B0E0
:1027E00000AFF860B9607A60FB68012283F8722557
:1027F000FB68BA689A62FB687A68DA620C48FFF78D
:1028000009F80346FB750CE0FB6893F8D035082BFC
:1028100002D1F868FFF792FF0023FB75044812F01D
:1028200087FEFB7D002BEFD11837BD4680BD00BF72
:102830000C07002080B483B000AF78607B68044A46
:102840001A607B6818460C37BD465DF8047B7047FC
:10285000888E010880B582B000AF78607B6818462A
:10286000FFF7E8FF7B68074A1A607B680022C3F81D
:1028700014257B680022C3F810257B6818460837AA
:10288000BD4680BD708E010880B584B000AF786011
:1028900039607B68D3F810357868194600F076F80F
:1028A000F8607B68D3F81425FB689A4214BF0023B4
:1028B0000123DBB2002B01D0002317E07B68D3F8A3
:1028C000102579681346DB0113445B00CA183B6886
:1028D000111D1A464FF48173084611461A4609F035
:1028E000E7FF7B68FA68C3F8102501231846103704
:1028F000BD4680BD80B483B000AF78607B68D3F8FC
:1029000014257B68D3F810359A4214BF00230123A5
:10291000DBB218460C37BD465DF8047B704700BF3C
:1029200080B582B000AF786039607B68D3F8142539
:102930007B68D3F810359A4214BF00230123DBB221
:10294000002B01D000231DE07B68D3F814253968E3
:1029500078681346DB0113445B0003441A1D4FF4EF
:102960008173084611461A4609F0A2FF7B68D3F826
:1029700014357868194600F009F802467B68C3F8F8
:102980001425012318460837BD4680BD80B483B0A6
:1029900000AF786039603B68032B02DC3B68013391
:1029A00000E0002318460C37BD465DF8047B7047F5
:1029B00080B582B000AF78607B68084A1A607B6897
:1029C000184612F071FE0023002B02D0786809F03F
:1029D00099FF7B6818460837BD4680BD588E0108B0
:1029E00080B582B000AF78607868FFF7E1FF786863
:1029F00009F088FF7B6818460837BD4680BD00BFD8
:102A000080B582B000AF78607B68084A1A607B6846
:102A10001846FEF70BFF0023002B02D0786809F060
:102A200071FF7B6818460837BD4680BD708E01086F
:102A300080B582B000AF78607868FFF7E1FF786812
:102A400009F060FF7B6818460837BD4680BD00BFAF
:102A500080B582B000AF786039607B68012B07D108
:102A60003A684FF6FF739A4202D1034812F0EAFC2B
:102A70000837BD4680BD00BF0C07002080B584B07C
:102A800000AFF860B9607A603B607B68B3F5817F26
:102A900004D9074809F006FA002304E0F868396809
:102AA000FFF7F2FE034618461037BD4680BD00BF53
:102AB000D878010880B500AF01204FF6FF71FFF70D
:102AC000C7FF80BD80B582B000AF78607B680A4ADE
:102AD0001A600A4809F0E6F97B680433184609F0E1
:102AE00065FB0023002B02D0786809F00BFF7B68A0
:102AF00018460837BD4680BD78940108E87801087B
:102B000080B582B000AF78607868FFF7DBFF786847
:102B100009F0F8FE7B6818460837BD4680BD00BF47
:102B200080B582B000AF78607B68084A1A607B6825
:102B30001846FFF7C7FF0023002B02D0786809F082
:102B4000E1FE7B6818460837BD4680BD0890010845
:102B500080B582B000AF78607868FFF7E1FF7868F1
:102B600009F0D0FE7B6818460837BD4680BD00BF1F
:102B700080B582B000AF78607B6818460549064A88
:102B800000F0B6F97B68054A1A607B68184608377A
:102B9000BD4680BD981A0020FC780108E08F01082E
:102BA00080B584B000AF786039603B68FB603B68FB
:102BB0001B78012B07D1084B03221A7007480649DE
:102BC000012200F0AFF905480349012200F0AAF9FB
:102BD0001037BD4680BD00BF3C100020F42F002000
:102BE00080B582B000AF78607B68084A1A607B6865
:102BF0001846FFF767FF0023002B02D0786809F022
:102C000081FE7B6818460837BD4680BDB88F010835
:102C100080B582B000AF78607868FFF7E1FF786830
:102C200009F070FE7B6818460837BD4680BD00BFBE
:102C300080B582B000AF78607B6818460549064AC7
:102C400000F084F97B68054A1A607B6818460837EB
:102C5000BD4680BD041B00201C790108908F01082F
:102C600080B584B000AF786039603B68FB60FB687A
:102C70001A68054B1A6005480349012200F080F9E3
:102C80001037BD4680BD00BF40100020AC2F002093
:102C900080B582B000AF78607B68084A1A607B68B4
:102CA0001846FFF70FFF0023002B02D0786809F0C9
:102CB00029FE7B6818460837BD4680BD688F01082D
:102CC00080B582B000AF78607868FFF7E1FF786880
:102CD00009F018FE7B6818460837BD4680BD00BF66
:102CE00080B582B000AF78607B6818460549064A17
:102CF00000F05AF97B68054A1A607B681846083765
:102D0000BD4680BD281B00201C790108408F0108AA
:102D100080B584B000AF786039603B68FB60FB68C9
:102D20001B78012B07D1054B07221A700448034971
:102D3000012200F0F7F81037BD4680BD4410002096
:102D4000F42F002080B582B000AF78607B68084A1D
:102D50001A607B681846FFF7B5FE0023002B02D0EF
:102D6000786809F0CFFD7B6818460837BD4680BDFE
:102D7000188F010880B582B000AF78607868FFF7DF
:102D8000E1FF786809F0BEFD7B6818460837BD464C
:102D900080BD00BF80B582B000AF78607B68184608
:102DA0000549064A00F01AF97B68054A1A607B68F3
:102DB00018460837BD4680BD701B002030790108D9
:102DC000F08E010880B584B000AF786039603B6850
:102DD000FB60FB68D3ED007AF5EE407AF1EE10FA75
:102DE00009D0FB681A680A4B1A600A480849012290
:102DF00000F00EF908E0064B4FF000021A6005489B
:102E00000349012200F004F91037BD4680BD00BF20
:102E1000481000201830002080B582B000AF7860E4
:102E20007B68084A1A607B681846FFF74BFE002350
:102E3000002B02D0786809F065FD7B6818460837DA
:102E4000BD4680BDC88E010880B582B000AF7860F5
:102E50007868FFF7E1FF786809F054FD7B68184651
:102E60000837BD4680BD00BF80B582B000AF786036
:102E70007B6818460549064A00F0DEF87B68054A7B
:102E80001A607B6818460837BD4680BD4C1B002081
:102E900030790108A08E010880B584B000AF786059
:102EA00039603B68FB60FB68D3ED007AF5EE407A51
:102EB000F1EE10FA09D0FB681A680A4B1A600A484A
:102EC0000849012200F0D2F808E0084B4FF0000258
:102ED0001A6005480349012200F0C8F81037BD46C2
:102EE00080BD00BF4C1000203C3000204810002066
:102EF00080B584B000AFF860B9607A60FB681846AE
:102F0000B9687A6809F03AFDFB68054A1A60FB68FF
:102F100000221A63FB6818461037BD4680BD00BF0B
:102F20000890010880B584B000AFF860B96013461E
:102F3000FB71FA68FB791046B9681A46002309F05C
:102F4000D9FF034618461037BD4680BD80B584B012
:102F500000AFF860B9607A60FB681846B9687A68B3
:102F600009F00CFDFB68054A1A60FB6800221A6331
:102F7000FB6818461037BD4680BD00BFB88F0108FA
:102F800080B584B000AFF860B9601346FB71FA6891
:102F9000FB791046B9681A46002309F0ABFF0346D7
:102FA00018461037BD4680BD80B584B000AFF860CC
:102FB000B9607A60FB681846B9687A6809F0DEFC87
:102FC000FB68054A1A60FB6800221A63FB68184612
:102FD0001037BD4680BD00BF688F010880B584B042
:102FE00000AFF860B9607A60FB681846B9687A6823
:102FF00009F0C4FCFB68054A1A60FB6800221A63EA
:10300000FB6818461037BD4680BD00BF188F010809
:1030100080B584B000AFF860B9601346FB71FA6800
:10302000FB791046B9681A46002309F063FF03468E
:1030300018461037BD4680BD80B584B000AFF8603B
:10304000B9607A60FB681846B9687A6809F096FC3E
:10305000FB68054A1A60FB6800221A63FB68184681
:103060001037BD4680BD00BFC88E010880B584B052
:1030700000AFF860B9601346FB71FA68FB7910463F
:10308000B9681A46002309F035FF03461846103781
:10309000BD4680BD80B582B000AF78607B68084ACD
:1030A0001A607B681846FFF7B7FE0023002B02D09A
:1030B000786809F027FC7B6818460837BD4680BD54
:1030C000A08E010880B582B000AF78607868FFF705
:1030D000E1FF786809F016FC7B6818460837BD46A2
:1030E00080BD00BF80B582B000AF78607B68084AC1
:1030F0001A607B681846FFF725FE0023002B02D0DC
:10310000786809F0FFFB7B6818460837BD4680BD2C
:10311000F08E010880B582B000AF78607868FFF764
:10312000E1FF786809F0EEFB7B6818460837BD467A
:1031300080BD00BF80B582B000AF78607B68084A70
:103140001A607B681846FFF7A3FD0023002B02D00E
:10315000786809F0D7FB7B6818460837BD4680BD04
:10316000408F010880B582B000AF78607868FFF7C3
:10317000E1FF786809F0C6FB7B6818460837BD4652
:1031800080BD00BF80B582B000AF78607B68084A20
:103190001A607B681846FFF723FD0023002B02D03E
:1031A000786809F0AFFB7B6818460837BD4680BDDC
:1031B000908F010880B582B000AF78607868FFF723
:1031C000E1FF786809F09EFB7B6818460837BD462A
:1031D00080BD00BF80B582B000AF78607B68084AD0
:1031E0001A607B681846FFF79BFC0023002B02D077
:1031F000786809F087FB7B6818460837BD4680BDB4
:10320000E08F010880B582B000AF78607868FFF782
:10321000E1FF786809F076FB7B6818460837BD4601
:1032200080BD00BF80B582B000AF786039607B6838
:10323000012B2CD13A684FF6FF739A4227D11548DB
:10324000FFF796FC13481449144A14F0D5FA1448B1
:10325000FFF7EEFC12481349104A14F0CDFA124859
:10326000FFF73EFD104811490C4A14F0C5FA10480A
:10327000FFF790FD0E480F49084A14F0BDFA0E48BA
:10328000FFF7F2FD0C480D49044A14F0B5FA08376F
:10329000BD4680BD50100020D5310008F404012047
:1032A0008410002085310008B81000203531000856
:1032B000EC100020E53000082011002095300008B7
:1032C00080B584B000AFF860B9607A603B60FB689D
:1032D0001B6818331B68F8683968BA699847012376
:1032E00018461037BD4680BD80B584B000AFF86089
:1032F000B9607A60FB681B6814331B68F868B968AA
:1033000098471037BD4680BD80B582B000AF786069
:1033100039607B681B6B002B03D07B681B6B3868A4
:1033200098470837BD4680BD80B584B000AFF860CF
:10333000B9607A603B60FB681B6818331B68F868EB
:103340003968BA699847012318461037BD4680BDD1
:1033500080B584B000AFF860B9607A60FB681B6824
:1033600014331B68F868B96898471037BD4680BDAC
:1033700080B582B000AF786039607B681B6B002B32
:1033800003D07B681B6B386898470837BD4680BD03
:1033900080B584B000AFF860B9607A603B60FB68CC
:1033A0001B6818331B68F8683968BA6998470123A5
:1033B00018461037BD4680BD80B584B000AFF860B8
:1033C000B9607A60FB681B6814331B68F868B968D9
:1033D00098471037BD4680BD80B582B000AF786099
:1033E00039607B681B6B002B03D07B681B6B3868D4
:1033F00098470837BD4680BD80B584B000AFF860FF
:10340000B9607A603B60FB681B6818331B68F8681A
:103410003968BA699847012318461037BD4680BD00
:1034200080B584B000AFF860B9607A60FB681B6853
:1034300014331B68F868B96898471037BD4680BDDB
:1034400080B582B000AF786039607B681B6B002B61
:1034500003D07B681B6B386898470837BD4680BD32
:1034600080B584B000AFF860B9607A603B60FB68FB
:103470001B6818331B68F8683968BA6998470123D4
:1034800018461037BD4680BD80B584B000AFF860E7
:10349000B9607A60FB681B6814331B68F868B96808
:1034A00098471037BD4680BD80B582B000AF7860C8
:1034B00039607B681B6B002B03D07B681B6B386803
:1034C00098470837BD4680BD80B500AF01204FF654
:1034D000FF71FFF7A7FE80BD80B483B000AF7860B6
:1034E0000C37BD465DF8047B704700BF80B582B0E5
:1034F00000AF786039607B680433184606493A6843
:10350000002308F00BFE7B68044A1A607B681846AB
:103510000837BD4680BD00BF9403012060900108BC
:1035200080B582B000AF78607B68094A1A607B681A
:103530000433184608F03AFE0023002B02D07868C6
:1035400009F0E0F97B6818460837BD4680BD00BF2A
:103550006090010880B582B000AF78607868FFF7AE
:10356000DFFF786809F0CEF97B6818460837BD465A
:1035700080BD00BF80B584B002AF7860464808F0D7
:103580009FF800230093444844490022002308F098
:1035900053F800230093404841490022002308F0DB
:1035A0004BF8002300933C483E490022002308F0DA
:1035B00043F80023009338483B490022002308F0D9
:1035C0003BF800230093344838490022002308F0D8
:1035D00033F800230093304835490022002308F0D7
:1035E0002BF8002300932C4832490022002308F0D6
:1035F00023F80023009328482F490022002308F0D5
:103600001BF80023009324482C490022002308F0D3
:1036100013F800230093204829490022002308F0D2
:103620000BF8002300931C4826490022002308F0D1
:1036300003F800230093184823490022002307F0D1
:10364000FBFF00230093144820490022002307F0C9
:10365000F3FF0023009310481D490022002307F0C8
:10366000EBFF002300930C481A490022002307F0C7
:10367000E3FF00230093084817490022002307F0C6
:10368000DBFF00230093044814490022002307F0C5
:10369000D3FF0837BD4680BDD0210020301900205F
:1036A00054190020781900209C190020C01900200E
:1036B000E4190020081A0020501A0020741A002073
:1036C000981A0020BC1A0020E01A0020041B0020D9
:1036D000281B00204C1B0020701B0020941B002086
:1036E00080B582B000AF78607B6818460549FFF767
:1036F000FDFE7B68044A1A607B6818460837BD46A1
:1037000080BD00BF347901084890010880B582B0BF
:1037100000AF786006480121012200230AF092FEE2
:10372000034801210AF094FF0837BD4680BD00BF61
:103730005411002080B582B000AF78607B681B68B0
:103740000C331B68786898470D4801210AF080FF08
:103750000C480D490D4AFEF79BFA0D4808F05CFB3A
:1037600008480C4940F2D172FFF738F804480021AC
:103770000AF06EFF084808F04FFB0837BD4680BDD1
:1037800054110020D81B0020407901084879010815
:1037900054790108C0A801DD5C79010880B582B0C8
:1037A00000AF78607B681846064964224FF4FA63DC
:1037B00011F00CFF7B68044A1A607B6818460837D2
:1037C000BD4680BD7C7901083090010880B582B08B
:1037D00000AF78607B68084A1A607B68184611F071
:1037E00063FF0023002B02D0786809F08BF87B6818
:1037F00018460837BD4680BD3090010880B582B0BC
:1038000000AF78607868FFF7E1FF786809F07AF830
:103810007B6818460837BD4680BD00BF80B582B0C2
:1038200000AF78607B68084A1A607B681846FFF72B
:1038300077FE0023002B02D0786809F063F87B68DC
:1038400018460837BD4680BD4890010880B582B053
:1038500000AF78607868FFF7E1FF786809F052F808
:103860007B6818460837BD4680BD00BF80B582B072
:1038700000AF786039607B68012B18D13A684FF649
:10388000FF739A4213D10B483E210AF0A7FD0A4864
:10389000FFF726FF08480949094A13F0ADFF094818
:1038A000FFF77CFF07480849054A13F0A5FF0837D2
:1038B000BD4680BD54110020701100201D38000845
:1038C000F404012088110020CD37000880B500AF36
:1038D00001204FF6FF71FFF7C9FF80BD80B582B0B0
:1038E00000AF7860054B01221A70054801210122C2
:1038F00000230AF0A7FD0837BD4680BDE81100206F
:103900001C12002080B584B000AF78607B681B6813
:103910000C331B68786898478848894900F0D2FAC8
:1039200088480AF0E1FE0346DB43864819460AF060
:103930008FFE8548854900F0E5FA854883490122D4
:1039400000F00AFB8348844900F01AFB824B834A4B
:103950001A6083488049012200F036FB8148824981
:1039600000F046FB8148824900F042FB804B1A6818
:10397000804B1A607C4B1A687E4B5A607D4B4FF02F
:1039800080425A607B4B4FF080421A607A487949F6
:10399000012200F04DFB7948794900F029FB794874
:1039A000794900F025FB784B1A68784B1A60744B04
:1039B0001A68764B5A60754B4FF080425A60734BD1
:1039C0004FF080421A6072487049012200F044FBB7
:1039D0005B4B1B780B2B08D16E486F4900F008FB3E
:1039E0006D4B1A686D4B1A600CE06D486D4900F024
:1039F00047FB6C4B1B6807EE103AF8EEC77A674B33
:103A0000C3ED007A654B684A1A6068486349012231
:103A100000F056FB4948664900F054FA644B1B78A5
:103A2000032B03D1634B01221A7002E0614B002289
:103A30001A7061485F49012200F056FB5F486049F7
:103A400000F066FB5E4B01221A705D4B4FF0804226
:103A50005A605B4B5B4A9A60594B4FF08142DA6087
:103A600059485749012200F077FB5848584901222C
:103A700000F086FB564B1B78FB604D4B1B78082BE8
:103A800038D801A252F823F0AD3A0008B53A000840
:103A9000BD3A0008C53A0008CD3A0008D53A0008FA
:103AA000DD3A0008E53A0008ED3A0008494B0122EA
:103AB0001A701FE0474B02221A701BE0454B02228E
:103AC0001A7017E0434B02221A7013E0414B012297
:103AD0001A700FE03F4B03221A700BE03D4B03229C
:103AE0001A7007E03B4B04221A7003E0394B0422A2
:103AF0001A7000BF38483749012200F055FB09F021
:103B00001DF902460B4610461946FDF7D3F806EE9E
:103B1000900A324B93ED007ADFED317A67EE277A27
:103B200076EEA77A17EE900AFDF734F902460B46B7
:103B300010461946002211F099FEEDE610170020FC
:103B4000681700201C12002038120020EC11002001
:103B500030190020E8140020D81100200000204176
:103B600054190020701500203C160020A0150020DC
:103B7000381600203016002078190020401600204A
:103B80000C170020701600200817002000170020D6
:103B90009C19002078180020D81800206C180020EC
:103BA000081800206818002000007A432C1A002012
:103BB000691700206C170020E419002070170020FE
:103BC000F817002000004040081A0020501A00207A
:103BD000E811002070180020741A00200000002056
:103BE0000024744980B582B000AF78607B681846C5
:103BF000064964224FF4FA6311F0E8FC7B68044A3A
:103C00001A607B6818460837BD4680BD287A0108CF
:103C10007890010880B582B000AF78607B68184664
:103C2000FEF708FE7B68144A1A607B681A1D7B68E1
:103C3000C3F894207B6803F134027B68C3F89820B2
:103C40007B6803F164027B68C3F89C207B680022D8
:103C500083F8A02079684FF000024FF00003C1E91B
:103C60002C237B68D3E92C237968C1E92A237B685C
:103C700018460837BD4680BD2091010880B582B046
:103C800000AF78607B681846FEF7D4FD7B68134A66
:103C90001A607B681A1D7B689A627B6803F11002C8
:103CA0007B68DA627B6803F11C027B681A637B68BD
:103CB000002283F8342079684FF000024FF00003AF
:103CC000C1E910237B68D3E910237968C1E90E2389
:103CD0007B6818460837BD4680BD00BF08910108C3
:103CE00080B582B000AF78607B681846FEF7A2FD11
:103CF0007B68124A1A607B681A1D7B681A617B68B0
:103D000003F108027B685A617B6803F10C027B684F
:103D10009A617B6800221A7779684FF000024FF0B1
:103D20000003C1E90A237B68D3E90A237968C1E962
:103D300008237B6818460837BD4680BDF09001080F
:103D400080B582B000AF78607B681846FEF772FDE0
:103D50007B68134A1A607B681A1D7B685A637B680C
:103D600003F114027B689A637B6803F124027B6889
:103D7000DA637B68002283F8402079684FF0000204
:103D80004FF00003C1E914237B68D3E91423796859
:103D9000C1E912237B6818460837BD4680BD00BFC5
:103DA000D890010880B582B000AF78607B68184673
:103DB000FEF740FD7B68114A1A607B681A1D7B681C
:103DC0009A607B685A1D7B68DA607B689A1D7B6805
:103DD0001A617B6800221A7579684FF000024FF073
:103DE0000003C1E908237B68D3E908237968C1E9A6
:103DF00006237B6818460837BD4680BDC090010881
:103E000080B582B000AF78607B681846FEF712FD7F
:103E10007B68134A1A607B681A1D7B685A637B684B
:103E200003F114027B689A637B6803F124027B68C8
:103E3000DA637B68002283F8402079684FF0000243
:103E40004FF00003C1E914237B68D3E91423796898
:103E5000C1E912237B6818460837BD4680BD00BF04
:103E6000A890010880B582B000AF78607B681846E2
:103E7000FEF7E0FC7B68124A1A607B681A1D7B68BB
:103E80001A617B6803F108027B685A617B6803F161
:103E90000C027B689A617B6800221A7779684FF080
:103EA00000024FF00003C1E90A237B68D3E90A232B
:103EB0007968C1E908237B6818460837BD4680BD8C
:103EC0009090010880B485B000AF786039607B685D
:103ED00001221A757B68DB68FB60FB681A783B6817
:103EE0001A707B6800221A757B68D3E908230132B7
:103EF00043F100037968C1E908231437BD465DF832
:103F0000047B7047B0B485B000AF786039607B68DF
:103F1000012283F8A0207B68D3F89830FB603A68D0
:103F2000FB6814461D460FCD0FC40FCD0FC495E896
:103F30000F0084E80F007B68002283F8A0207B68D4
:103F4000D3E92C23013243F100037968C1E92C2322
:103F50001437BD46B0BC704780B584B000AFF86080
:103F6000B9601346FB71FA68FB791046B9681A46C6
:103F7000002308F0BFFF034618461037BD4680BD3A
:103F800090B484B000AF786039607B68012283F818
:103F900040207B689B6BFB603A68FB6814460FCB44
:103FA00084E80F007B68002283F840207B68D3E917
:103FB0001423013243F100037968C1E91423103757
:103FC000BD4690BC704700BF80B584B000AFF860BC
:103FD000B9601346FB71FA68FB791046B9681A4656
:103FE000002308F087FF034618461037BD4680BD02
:103FF00080B485B000AF786039607B6801221A77A1
:104000007B685B69FB60FB681A683B681A607B68C9
:1040100000221A777B68D3E90A23013243F10003B7
:104020007968C1E90A231437BD465DF8047B7047FF
:1040300080B584B000AFF860B9601346FB71FA68D0
:10404000FB791046B9681A46002308F053FF03466F
:1040500018461037BD4680BD80B584B000AFF8600B
:10406000B9601346FB71FA68FB791046B9681A46C5
:10407000002308F03FFF034618461037BD4680BDB9
:1040800080B485B000AF786039607B6801221A7710
:104090007B685B69FB60FB681A683B681A607B6839
:1040A00000221A777B68D3E90A23013243F1000327
:1040B0007968C1E90A231437BD465DF8047B70476F
:1040C00080B584B000AFF860B9601346FB71FA6840
:1040D000FB791046B9681A46002308F00BFF034627
:1040E00018461037BD4680BD80B584B000AFF8607B
:1040F000B9601346FB71FA68FB791046B9681A4635
:10410000002308F0F7FE034618461037BD4680BD71
:1041100090B484B000AF786039607B68012283F886
:1041200040207B689B6BFB603A68FB6814460FCBB2
:1041300084E80F007B68002283F840207B68D3E985
:104140001423013243F100037968C1E914231037C5
:10415000BD4690BC704700BF80B584B000AFF8602A
:10416000B9601346FB71FA68FB791046B9681A46C4
:10417000002308F0BFFE034618461037BD4680BD39
:1041800080B584B000AFF860B9601346FB71FA687F
:10419000FB791046B9681A46002308F0ABFE0346C7
:1041A00018461037BD4680BD80B584B000AFF860BA
:1041B000B9601346FB71FA68FB791046B9681A4674
:1041C000002308F097FE034618461037BD4680BD11
:1041D00080B582B000AF78607B68084A1A607B685F
:1041E000184611F061FA0023002B02D0786808F01D
:1041F00089FB7B6818460837BD4680BD789001086A
:1042000080B582B000AF78607868FFF7E1FF78682A
:1042100008F078FB7B6818460837BD4680BD00BFB4
:1042200080B582B000AF78607B68084A1A607B680E
:104230001846FDF7FBFA0023002B02D0786808F03F
:1042400061FB7B6818460837BD4680BD9090010829
:1042500080B582B000AF78607868FFF7E1FF7868DA
:1042600008F050FB7B6818460837BD4680BD00BF8C
:1042700080B582B000AF78607B68084A1A607B68BE
:104280001846FDF7D3FA0023002B02D0786808F017
:1042900039FB7B6818460837BD4680BDA8900108E9
:1042A00080B582B000AF78607868FFF7E1FF78688A
:1042B00008F028FB7B6818460837BD4680BD00BF64
:1042C00080B582B000AF78607B68084A1A607B686E
:1042D0001846FDF7ABFA0023002B02D0786808F0EF
:1042E00011FB7B6818460837BD4680BDC0900108A9
:1042F00080B582B000AF78607868FFF7E1FF78683A
:1043000008F000FB7B6818460837BD4680BD00BF3B
:1043100080B582B000AF78607B68084A1A607B681D
:104320001846FDF783FA0023002B02D0786808F0C6
:10433000E9FA7B6818460837BD4680BDD890010869
:1043400080B582B000AF78607868FFF7E1FF7868E9
:1043500008F0D8FA7B6818460837BD4680BD00BF14
:1043600080B582B000AF78607B68084A1A607B68CD
:104370001846FDF75BFA0023002B02D0786808F09E
:10438000C1FA7B6818460837BD4680BDF090010829
:1043900080B582B000AF78607868FFF7E1FF786899
:1043A00008F0B0FA7B6818460837BD4680BD00BFEC
:1043B00080B582B000AF78607B68084A1A607B687D
:1043C0001846FDF733FA0023002B02D0786808F076
:1043D00099FA7B6818460837BD4680BD08910108E8
:1043E00080B582B000AF78607868FFF7E1FF786849
:1043F00008F088FA7B6818460837BD4680BD00BFC4
:1044000080B582B000AF78607B68084A1A607B682C
:104410001846FDF70BFA0023002B02D0786808F04D
:1044200071FA7B6818460837BD4680BD20910108A7
:1044300080B582B000AF78607868FFF7E1FF7868F8
:1044400008F060FA7B6818460837BD4680BD00BF9B
:1044500080B584B002AF786039607B68012B40F092
:1044600038813A684FF6FF739A4240F032819A4899
:104470003D2109F0B3FF9948FFF7CCFB97489849D5
:10448000984A13F0B9F99848FFF7F8FB964897490E
:10449000944A13F0B1F99648FFF7F0FB944893491A
:1044A000904A13F0A9F99348FFF7E8FB91488F4928
:1044B0008C4A13F0A1F99048FFF712FC8E488F49FF
:1044C000884A13F099F9002300938D488D49834A57
:1044D0008D4B08F021FA8A488C49824A13F08CF9F6
:1044E000002300938A488B497F4A8B4B08F014FACB
:1044F000874886497B4A13F07FF900230093874859
:1045000087497B4A874B08F007FA84487F49754AF8
:1045100013F072F90023009383488449754A844B51
:1045200008F0FAF9804879496E4A13F065F90023DA
:10453000009380488049704A804B08F0EDF97D482F
:104540007249684A13F058F97D48FFF7F9FB7C4837
:104550007C49644A13F050F9002300937A487B4960
:10456000774A7B4B08F0D8F9774868495D4A13F0E1
:1045700043F97848FFF7B4FB76486049594A13F08D
:104580003BF97548FFF7ACFB73485C49554A13F09B
:1045900033F900230093714871496E4A714B08F05A
:1045A000BBF96E4859494F4A13F026F9002300938E
:1045B0006D486E49684A6E4B08F0AEF96A48534937
:1045C000484A13F019F96B48FFF78AFB69484B49D1
:1045D000444A13F011F96848FFF782FB66484749DF
:1045E000404A13F009F90023009364485C49614A8A
:1045F000634B08F091F9614844493A4A13F0FCF8DA
:10460000002300935F4859495B4A5F4B08F084F9E7
:104610005C483E49334A13F0EFF85C48FFF7C2FBB1
:104620005A485B492F4A13F0E7F800230093594892
:104630005949564A594B08F06FF956483349294AA7
:1046400013F0DAF85648FFF7DBFB55485549254A81
:1046500013F0D2F80023009353485449504A544B66
:1046600008F05AF9504829491E4A13F0C5F8514834
:10467000FFF7F8FB4F4850491A4A13F0BDF80023E2
:1046800000934E484E494B4A4E4B08F045F94B4873
:104690001E49144A13F0B0F84B48FFF721FB4A4873
:1046A0001649104A13F0A8F80023009347484849D8
:1046B000454A444B08F030F944481449094A13F07C
:1046C0009BF84448FFF78EFA42484349054A13F0E5
:1046D00093F80837BD4680BD1C1200203812002018
:1046E00001440008F4040120F0120020B143000846
:1046F0003813002080130020C813002061430008F5
:10470000F8130020B42D0020387A0108C52A0008CB
:1047100028140020D82D00204C7A010858140020BD
:10472000FC2D0020587A010888140020202E00203B
:10473000647A0108B8140020682E0020707A0108FD
:10474000E814002011430008401500208C2E0020A2
:10475000847A010870150020A0150020D0150020D3
:10476000D42E0020947A010800160020B02E0020DC
:10477000A07A01084016002070160020A016002024
:10478000AC7A0108D0160020BC7A0108101700206E
:10479000C142000838170020902D0020CC7A010873
:1047A0007017002071420008C8170020642F0020F5
:1047B000DC7A01080818002021420008381800207F
:1047C0006C2D0020E87A010878180020A818002035
:1047D000AC2F0020E0180020D141000880B584B043
:1047E00000AFF860B9607A603B607B68042B04D945
:1047F000064807F057FB002304E0F868396800F02A
:10480000A3F8012318461037BD4680BDFC7A010885
:1048100080B584B000AFF860B9607A603B607B68B7
:10482000102B04D9064807F03DFB002304E0F8688C
:10483000396800F0BBF8012318461037BD4680BD2B
:10484000FC7A010880B584B000AFF860B9607A6086
:104850003B607B68012B04D9064807F023FB00234B
:1048600004E0F868396800F0D5F8012318461037DD
:10487000BD4680BDFC7A010880B584B000AFF86009
:10488000B9607A603B607B68102B04D9064807F05A
:1048900009FB002304E0F868396800F0EDF8012313
:1048A00018461037BD4680BDFC7A010880B584B03B
:1048B00000AFF860B9607A603B607B68042B04D974
:1048C000064807F0EFFA002304E0F868396800F0C2
:1048D00007F9012318461037BD4680BDFC7A010850
:1048E00080B584B000AFF860B9607A603B607B68E7
:1048F0000C2B04D9064807F0D5FA002304E0F86829
:10490000396800F01FF9012318461037BD4680BDF5
:10491000FC7A010880B584B000AFF860B9607A60B5
:104920003B607B68302B04D9064807F0BBFA0023B4
:1049300004E0F868396800F039F9012318461037A7
:10494000BD4680BDFC7A010880B485B000AF7860B8
:1049500039607B681B693A6812681A607B685B691A
:10496000FB607B681A697B685A617B68FA681A6128
:104970007B681B7FDBB2002B09D07B681B69FB6067
:104980007B689A697B681A617B68FA689A617B68C0
:10499000D3E90823013243F100037968C1E9082310
:1049A0001437BD465DF8047B704700BF90B484B0F7
:1049B00000AF786039607B685A6B3B6814460FCB58
:1049C00084E80F007B689B6BFB607B685A6B7B689D
:1049D0009A637B68FA685A637B6893F84030DBB26D
:1049E000002B09D07B685B6BFB607B68DA6B7B68B4
:1049F0005A637B68FA68DA637B68D3E91223013271
:104A000043F100037968C1E912231037BD4690BC19
:104A1000704700BF80B485B000AF786039607B68B4
:104A20009B683A6812781A707B68DB68FB607B6869
:104A30009A687B68DA607B68FA689A607B681B7D9D
:104A4000DBB2002B09D07B689B68FB607B681A692E
:104A50007B689A607B68FA681A617B68D3E90623F1
:104A6000013243F100037968C1E906231437BD46DA
:104A70005DF8047B704700BF90B484B000AF7860ED
:104A800039607B685A6B3B6814460FCB84E80F0093
:104A90007B689B6BFB607B685A6B7B689A637B6867
:104AA000FA685A637B6893F84030DBB2002B09D078
:104AB0007B685B6BFB607B68DA6B7B685A637B6847
:104AC000FA68DA637B68D3E91223013243F1000309
:104AD0007968C1E912231037BD4690BC704700BF0A
:104AE00080B485B000AF786039607B681B693A6834
:104AF00012681A607B685B69FB607B681A697B6877
:104B00005A617B68FA681A617B681B7FDBB2002BF5
:104B100009D07B681B69FB607B689A697B681A61B6
:104B20007B68FA689A617B68D3E90823013243F114
:104B300000037968C1E908231437BD465DF8047B9A
:104B4000704700BF80B485B000AF786039607B6883
:104B50009B6A3A6807CA83E807007B68DB6AFB60E8
:104B60007B689A6A7B68DA627B68FA689A627B681B
:104B700093F83430DBB2002B09D07B689B6AFB6072
:104B80007B681A6B7B689A627B68FA681A637B6839
:104B9000D3E90E23013243F100037968C1E90E2302
:104BA0001437BD465DF8047B704700BFB0B485B0D4
:104BB00000AF786039607B68D3F894203B68144676
:104BC0001D460FCD0FC40FCD0FC495E80F0084E82C
:104BD0000F007B68D3F89830FB607B68D3F8942093
:104BE0007B68C3F898207B68FA68C3F894207B68D8
:104BF00093F8A030DBB2002B0DD07B68D3F8943053
:104C0000FB607B68D3F89C207B68C3F894207B68AA
:104C1000FA68C3F89C207B68D3E92A23013243F168
:104C200000037968C1E92A231437BD46B0BC704738
:104C300080B500AF01204FF6FF71FFF709FC80BD82
:104C400080B582B000AF78607B680A4A1A600A4873
:104C500007F028F97B680433184607F0A7FA002309
:104C6000002B02D0786807F04DFE7B6818460837A5
:104C7000BD4680BD58920108107B010880B582B006
:104C800000AF78607868FFF7DBFF786807F03AFEDE
:104C90007B6818460837BD4680BD00BF80B584B02C
:104CA00000AFF860B9607A60FB681846B9683022D6
:104CB0007B6808F0AFF8FB68034A1A60FB68184687
:104CC0001037BD4680BD00BF4892010880B584B052
:104CD00000AFF860B9607A60FB681846B9681022C6
:104CE0007B6808F097F8FB68034A1A60FB6818466F
:104CF0001037BD4680BD00BF3892010880B584B032
:104D000000AFF860B9607A60FB681846B96808229D
:104D10007B6808F07FF8FB68034A1A60FB68184656
:104D20001037BD4680BD00BF2892010880B584B011
:104D300000AFF860B9607A60FB681846B96808226D
:104D40007B6808F067F8FB68034A1A60FB6818463E
:104D50001037BD4680BD00BF1892010880B584B0F1
:104D600000AFF860B9607A60FB681846B9684CF229
:104D700001627B6808F04EF8FB68034A1A60FB6822
:104D800018461037BD4680BD0892010880B584B032
:104D900000AFF860B9607A60FB681846B968012214
:104DA0007B6808F037F8FB68034A1A60FB6818460E
:104DB0001037BD4680BD00BFF891010880B584B0B2
:104DC00000AFF860B9607A60FB681846B9681022D5
:104DD0007B6808F01FF8FB68034A1A60FB681846F6
:104DE0001037BD4680BD00BFE891010880B584B092
:104DF00000AFF860B9607A60FB681846B9680422B1
:104E00007B6808F007F8FB68034A1A60FB681846DD
:104E10001037BD4680BD00BFD891010880B584B071
:104E200000AFF860B9607A60FB681846B968012283
:104E30007B6807F0EFFFFB68034A1A60FB681846BF
:104E40001037BD4680BD00BFC891010880B584B051
:104E500000AFF860B9607A60FB681846B968012253
:104E60007B6807F0D7FFFB68034A1A60FB681846A7
:104E70001037BD4680BD00BFB891010880B584B031
:104E800000AFF860B9607A60FB681846B968012223
:104E90007B6807F0BFFFFB68034A1A60FB6818468F
:104EA0001037BD4680BD00BFA891010880B584B011
:104EB00000AFF860B9607A60FB681846B9681022E4
:104EC0007B6807F0A7FFFB68034A1A60FB68184677
:104ED0001037BD4680BD00BF9891010880B584B0F1
:104EE00000AFF860B9607A60FB681846B9680422C0
:104EF0007B6807F08FFFFB68034A1A60FB6818465F
:104F00001037BD4680BD00BF8891010880B584B0D0
:104F100000AFF860B9607A60FB681846B96804228F
:104F20007B6807F077FFFB68034A1A60FB68184646
:104F30001037BD4680BD00BF7891010880B584B0B0
:104F400000AFF860B9607A60FB681846B968012262
:104F50007B6807F05FFFFB68034A1A60FB6818462E
:104F60001037BD4680BD00BF6891010880B584B090
:104F700000AFF860B9607A60FB681846B96804222F
:104F80007B6807F047FFFB68034A1A60FB68184616
:104F90001037BD4680BD00BF5891010880B584B070
:104FA00000AFF860B9607A60FB681846B9680422FF
:104FB0007B6807F02FFFFB68034A1A60FB681846FE
:104FC0001037BD4680BD00BF4891010880B584B050
:104FD00000AFF860B9607A60FB681846B9680122D2
:104FE0007B6807F017FFFB68034A1A60FB681846E6
:104FF0001037BD4680BD00BF3891010880B582B032
:1050000000AF78607B68094A1A607B6803F5AF637C
:105010001846FDF7CDFC7B684C331846FDF7F0FCD5
:105020007B6818460837BD4680BD00BF188E010852
:1050300080B582B000AF78607B680F4A1A607B68E9
:105040000E4A1A637B6880331846FCF7EFFB7B68D7
:105050003033184610F028FB7B681846FDF732FD08
:105060000023002B02D0786807F04CFC7B681846C0
:105070000837BD4680BD00BFC8930108E89301080A
:10508000A0F13000FFF7D4BF80B582B000AF7860E8
:105090007868FFF7CDFF786807F034FC7B68184626
:1050A0000837BD4680BD00BFA0F13000ECE700BF6F
:1050B00080B582B000AF786039607B68012B40F02A
:1050C000ED803A684FF6FF739A4240F0E7807548EA
:1050D00040F28531744AFFF7E1FD72487349744A22
:1050E00012F08AFB734840F28631734AFFF7EEFDF7
:1050F000704872496E4A12F07FFB714840F2873166
:10510000704AFFF7FBFD6E486F49694A12F074FB65
:105110006E484FF462716E4AFFF708FE6B486D49A6
:10512000634A12F069FB6C4840F289316B4AFFF721
:1051300015FE69486A495E4A12F05EFB694840F212
:105140008A31694AFFF722FE66486849584A12F0D8
:1051500053FB674840F28B31664AFFF72FFE6448E5
:105160006549534A12F048FB64484FF46371644A3E
:10517000FFF73CFE614863494D4A12F03DFB62482F
:1051800040F28D31614AFFF749FE5F486049484A65
:1051900012F032FB5F4840F28E315F4AFFF756FE55
:1051A0005C485E49424A12F027FB5D4840F2E93113
:1051B0005C4AFFF763FE5A485B493D4A12F01CFB0C
:1051C0005A4840F2EA315A4AFFF770FE57485949A7
:1051D000374A12F011FB584840F2EB31574AFFF7BB
:1051E0007DFE55485649324A12F006FB55484FF4A9
:1051F0007B71524AFFF78AFE524853492C4A12F0FB
:10520000FBFA524840F2ED314C4AFFF797FE4F4807
:105210004F49274A12F0F0FA4E4840F2EE31474A21
:10522000FFF7A4FE4B484C49214A12F0E5FA4B48DF
:1052300040F2EF31414AFFF7B1FE484848491C4A65
:1052400012F0DAFA47484FF47C713C4AFFF7BEFE91
:1052500044484549164A12F0CFFA444803210BF05E
:105260000BFB43484149FCF7D1FC41484149104AF6
:1052700012F0C2FA40483E49FCF786F93E483F49E1
:105280000B4A12F0B9FA3E483B490122012306F0CD
:1052900023F83B483B49064A12F0AEFA0837BD46B0
:1052A00080BD00BF30190020BC7B0108A559000853
:1052B000F404012054190020D07B0108495900084A
:1052C00078190020DC7B0108ED5800089C190020AB
:1052D000EC7B010891580008C0190020F87B0108F8
:1052E00035580008E4190020087C0108D957000847
:1052F000081A00201C7C01087D5700082C1A002089
:10530000287C010821570008501A00202C7C010835
:10531000C5560008741A00203C7C01086956000834
:10532000981A00204C7C01080D560008BC1A002079
:10533000607C0108B1550008E01A0020747C010867
:1053400055550008041B0020F9540008281B0020B4
:105350009D5400084C1B002041540008701B002085
:10536000E5530008941B002089530008B81B002057
:10537000D81B0020FD4F0008B0210020A517000811
:10538000D02100203150000880B582B000AF786095
:105390007B680A4A1A600A4806F084FD7B68184652
:1053A000FFF74EFC0023002B02D0786807F0AAFA22
:1053B0007B6818460837BD4680BD00BF389101089C
:1053C000907C010880B582B000AF78607868FFF704
:1053D000DBFF786807F096FA7B6818460837BD4609
:1053E00080BD00BF80B582B000AF78607B680A4A9C
:1053F0001A600A4806F056FD7B681846FFF720FC45
:105400000023002B02D0786807F07CFA7B681846EE
:105410000837BD4680BD00BF48910108907C010857
:1054200080B582B000AF78607868FFF7DBFF7868FE
:1054300007F068FA7B6818460837BD4680BD00BF94
:1054400080B582B000AF78607B680A4A1A600A486B
:1054500006F028FD7B681846FFF7F2FB0023002BBF
:1054600002D0786807F04EFA7B6818460837BD46C8
:1054700080BD00BF58910108907C010880B582B0C2
:1054800000AF78607868FFF7DBFF786807F03AFADA
:105490007B6818460837BD4680BD00BF80B582B026
:1054A00000AF78607B680A4A1A600A4806F0FAFC86
:1054B0007B681846FFF7C4FB0023002B02D07868F6
:1054C00007F020FA7B6818460837BD4680BD00BF4C
:1054D00068910108907C010880B582B000AF7860C7
:1054E0007868FFF7DBFF786807F00CFA7B681846EE
:1054F0000837BD4680BD00BF80B582B000AF786080
:105500007B680A4A1A600A4806F0CCFC7B68184699
:10551000FFF796FB0023002B02D0786807F0F2F922
:105520007B6818460837BD4680BD00BF78910108EA
:10553000907C010880B582B000AF78607868FFF792
:10554000DBFF786807F0DEF97B6818460837BD4650
:1055500080BD00BF80B582B000AF78607B680A4A2A
:105560001A600A4806F09EFC7B681846FFF768FB45
:105570000023002B02D0786807F0C4F97B68184636
:105580000837BD4680BD00BF88910108907C0108A6
:1055900080B582B000AF78607868FFF7DBFF78688D
:1055A00007F0B0F97B6818460837BD4680BD00BFDC
:1055B00080B582B000AF78607B680A4A1A600A48FA
:1055C00006F070FC7B681846FFF73AFB0023002BBF
:1055D00002D0786807F096F97B6818460837BD4610
:1055E00080BD00BF98910108907C010880B582B011
:1055F00000AF78607868FFF7DBFF786807F082F922
:105600007B6818460837BD4680BD00BF80B582B0B4
:1056100000AF78607B680A4A1A600A4806F042FCCC
:105620007B681846FFF70CFB0023002B02D078683C
:1056300007F068F97B6818460837BD4680BD00BF93
:10564000A8910108907C010880B582B000AF786015
:105650007868FFF7DBFF786807F054F97B68184635
:105660000837BD4680BD00BF80B582B000AF78600E
:105670007B680A4A1A600A4806F014FC7B681846E0
:10568000FFF7DEFA0023002B02D0786807F03AF922
:105690007B6818460837BD4680BD00BFB891010839
:1056A000907C010880B582B000AF78607868FFF721
:1056B000DBFF786807F026F97B6818460837BD4697
:1056C00080BD00BF80B582B000AF78607B680A4AB9
:1056D0001A600A4806F0E6FB7B681846FFF7B0FA46
:1056E0000023002B02D0786807F00CF97B6818467D
:1056F0000837BD4680BD00BFC8910108907C0108F5
:1057000080B582B000AF78607868FFF7DBFF78681B
:1057100007F0F8F87B6818460837BD4680BD00BF23
:1057200080B582B000AF78607B680A4A1A600A4888
:1057300006F0B8FB7B681846FFF782FA0023002BBF
:1057400002D0786807F0DEF87B6818460837BD4657
:1057500080BD00BFD8910108907C010880B582B05F
:1057600000AF78607868FFF7DBFF786807F0CAF869
:105770007B6818460837BD4680BD00BF80B582B043
:1057800000AF78607B680A4A1A600A4806F08AFB14
:105790007B681846FFF754FA0023002B02D0786884
:1057A00007F0B0F87B6818460837BD4680BD00BFDB
:1057B000E8910108907C010880B582B000AF786064
:1057C0007868FFF7DBFF786807F09CF87B6818467D
:1057D0000837BD4680BD00BF80B582B000AF78609D
:1057E0007B680A4A1A600A4806F05CFB7B68184628
:1057F000FFF726FA0023002B02D0786807F082F822
:105800007B6818460837BD4680BD00BFF891010887
:10581000907C010880B582B000AF78607868FFF7AF
:10582000DBFF786807F06EF87B6818460837BD46DE
:1058300080BD00BF80B582B000AF78607B680A4A47
:105840001A600A4806F02EFB7B681846FFF7F8F945
:105850000023002B02D0786807F054F87B681846C4
:105860000837BD4680BD00BF08920108907C010842
:1058700080B582B000AF78607868FFF7DBFF7868AA
:1058800007F040F87B6818460837BD4680BD00BF6A
:1058900080B582B000AF78607B680A4A1A600A4817
:1058A00006F000FB7B681846FFF7CAF90023002BBF
:1058B00002D0786807F026F87B6818460837BD469E
:1058C00080BD00BF18920108907C010880B582B0AD
:1058D00000AF78607868FFF7DBFF786807F012F8B0
:1058E0007B6818460837BD4680BD00BF80B582B0D2
:1058F00000AF78607B680A4A1A600A4806F0D2FA5C
:105900007B681846FFF79CF90023002B02D07868CB
:1059100006F0F8FF7B6818460837BD4680BD00BF1B
:1059200028920108907C010880B582B000AF7860B1
:105930007868FFF7DBFF786806F0E4FF7B681846BD
:105940000837BD4680BD00BF80B582B000AF78602B
:105950007B680A4A1A600A4806F0A4FA7B6818466F
:10596000FFF76EF90023002B02D0786806F0CAFF1B
:105970007B6818460837BD4680BD00BF38920108D5
:10598000907C010880B582B000AF78607868FFF73E
:10599000DBFF786806F0B6FF7B6818460837BD461F
:1059A00080BD00BF80B582B000AF78607B680A4AD6
:1059B0001A600A4806F076FA7B681846FFF740F945
:1059C0000023002B02D0786806F09CFF7B68184605
:1059D0000837BD4680BD00BF48920108907C010891
:1059E00080B582B000AF78607868FFF7DBFF786839
:1059F00006F088FF7B6818460837BD4680BD00BFAB
:105A000080B500AF01204FF6FF71FFF751FB80BD5D
:105A100080B582B000AF786039607B68184639681D
:105A200064224FF4FA630FF0D1FD7B680F4A1A60CD
:105A30007B6803F54643503300221A707B6803F5F8
:105A40004643513300221A707B6803F546435233B4
:105A5000074A19464FF4A973084611461A4606F03C
:105A600027FF7B6818460837BD4680BD689201084D
:105A7000B07C010880B582B000AF78607B68084ACE
:105A80001A607B6818460FF00FFE0023002B02D02F
:105A9000786806F037FF7B6818460837BD4680BD3A
:105AA0006892010880B582B000AF78607868FFF72F
:105AB000E1FF786806F026FF7B6818460837BD4688
:105AC00080BD00BF80B582B000AF7860024806F0AC
:105AD000A3F90837BD4680BD047E010880B483B0B9
